{
  "abi": [
    {
      "inputs": [
        {
          "internalType": "address",
          "name": "safeEngine_",
          "type": "address"
        },
        {
          "internalType": "address",
          "name": "liquidationEngine_",
          "type": "address"
        },
        {
          "internalType": "bytes32",
          "name": "collateralType_",
          "type": "bytes32"
        }
      ],
      "stateMutability": "nonpayable",
      "type": "constructor"
    },
    {
      "anonymous": false,
      "inputs": [
        {
          "indexed": false,
          "internalType": "address",
          "name": "account",
          "type": "address"
        }
      ],
      "name": "AddAuthorization",
      "type": "event"
    },
    {
      "anonymous": false,
      "inputs": [
        {
          "indexed": true,
          "internalType": "uint256",
          "name": "id",
          "type": "uint256"
        },
        {
          "indexed": false,
          "internalType": "uint256",
          "name": "wad",
          "type": "uint256"
        },
        {
          "indexed": false,
          "internalType": "uint256",
          "name": "boughtCollateral",
          "type": "uint256"
        }
      ],
      "name": "BuyCollateral",
      "type": "event"
    },
    {
      "anonymous": false,
      "inputs": [
        {
          "indexed": false,
          "internalType": "bytes32",
          "name": "parameter",
          "type": "bytes32"
        },
        {
          "indexed": false,
          "internalType": "uint256",
          "name": "data",
          "type": "uint256"
        }
      ],
      "name": "ModifyParameters",
      "type": "event"
    },
    {
      "anonymous": false,
      "inputs": [
        {
          "indexed": false,
          "internalType": "bytes32",
          "name": "parameter",
          "type": "bytes32"
        },
        {
          "indexed": false,
          "internalType": "address",
          "name": "data",
          "type": "address"
        }
      ],
      "name": "ModifyParameters",
      "type": "event"
    },
    {
      "anonymous": false,
      "inputs": [
        {
          "indexed": false,
          "internalType": "address",
          "name": "account",
          "type": "address"
        }
      ],
      "name": "RemoveAuthorization",
      "type": "event"
    },
    {
      "anonymous": false,
      "inputs": [
        {
          "indexed": true,
          "internalType": "uint256",
          "name": "id",
          "type": "uint256"
        },
        {
          "indexed": false,
          "internalType": "uint256",
          "name": "leftoverCollateral",
          "type": "uint256"
        }
      ],
      "name": "SettleAuction",
      "type": "event"
    },
    {
      "anonymous": false,
      "inputs": [
        {
          "indexed": false,
          "internalType": "uint256",
          "name": "id",
          "type": "uint256"
        },
        {
          "indexed": false,
          "internalType": "uint256",
          "name": "auctionsStarted",
          "type": "uint256"
        },
        {
          "indexed": false,
          "internalType": "uint256",
          "name": "amountToSell",
          "type": "uint256"
        },
        {
          "indexed": false,
          "internalType": "uint256",
          "name": "initialBid",
          "type": "uint256"
        },
        {
          "indexed": true,
          "internalType": "uint256",
          "name": "amountToRaise",
          "type": "uint256"
        },
        {
          "indexed": false,
          "internalType": "uint256",
          "name": "startingDiscount",
          "type": "uint256"
        },
        {
          "indexed": false,
          "internalType": "uint256",
          "name": "maxDiscount",
          "type": "uint256"
        },
        {
          "indexed": false,
          "internalType": "uint256",
          "name": "perSecondDiscountUpdateRate",
          "type": "uint256"
        },
        {
          "indexed": false,
          "internalType": "uint48",
          "name": "discountIncreaseDeadline",
          "type": "uint48"
        },
        {
          "indexed": true,
          "internalType": "address",
          "name": "forgoneCollateralReceiver",
          "type": "address"
        },
        {
          "indexed": true,
          "internalType": "address",
          "name": "auctionIncomeRecipient",
          "type": "address"
        }
      ],
      "name": "StartAuction",
      "type": "event"
    },
    {
      "anonymous": false,
      "inputs": [
        {
          "indexed": true,
          "internalType": "uint256",
          "name": "id",
          "type": "uint256"
        },
        {
          "indexed": false,
          "internalType": "address",
          "name": "sender",
          "type": "address"
        },
        {
          "indexed": false,
          "internalType": "uint256",
          "name": "collateralAmount",
          "type": "uint256"
        }
      ],
      "name": "TerminateAuctionPrematurely",
      "type": "event"
    },
    {
      "inputs": [],
      "name": "AUCTION_HOUSE_TYPE",
      "outputs": [
        {
          "internalType": "bytes32",
          "name": "",
          "type": "bytes32"
        }
      ],
      "stateMutability": "view",
      "type": "function"
    },
    {
      "inputs": [],
      "name": "AUCTION_TYPE",
      "outputs": [
        {
          "internalType": "bytes32",
          "name": "",
          "type": "bytes32"
        }
      ],
      "stateMutability": "view",
      "type": "function"
    },
    {
      "inputs": [
        {
          "internalType": "address",
          "name": "account",
          "type": "address"
        }
      ],
      "name": "addAuthorization",
      "outputs": [],
      "stateMutability": "nonpayable",
      "type": "function"
    },
    {
      "inputs": [
        {
          "internalType": "uint256",
          "name": "id",
          "type": "uint256"
        }
      ],
      "name": "amountToRaise",
      "outputs": [
        {
          "internalType": "uint256",
          "name": "",
          "type": "uint256"
        }
      ],
      "stateMutability": "view",
      "type": "function"
    },
    {
      "inputs": [],
      "name": "auctionsStarted",
      "outputs": [
        {
          "internalType": "uint256",
          "name": "",
          "type": "uint256"
        }
      ],
      "stateMutability": "view",
      "type": "function"
    },
    {
      "inputs": [
        {
          "internalType": "address",
          "name": "",
          "type": "address"
        }
      ],
      "name": "authorizedAccounts",
      "outputs": [
        {
          "internalType": "uint256",
          "name": "",
          "type": "uint256"
        }
      ],
      "stateMutability": "view",
      "type": "function"
    },
    {
      "inputs": [
        {
          "internalType": "uint256",
          "name": "id",
          "type": "uint256"
        }
      ],
      "name": "bidAmount",
      "outputs": [
        {
          "internalType": "uint256",
          "name": "",
          "type": "uint256"
        }
      ],
      "stateMutability": "view",
      "type": "function"
    },
    {
      "inputs": [
        {
          "internalType": "uint256",
          "name": "",
          "type": "uint256"
        }
      ],
      "name": "bids",
      "outputs": [
        {
          "internalType": "uint256",
          "name": "amountToSell",
          "type": "uint256"
        },
        {
          "internalType": "uint256",
          "name": "amountToRaise",
          "type": "uint256"
        },
        {
          "internalType": "uint256",
          "name": "currentDiscount",
          "type": "uint256"
        },
        {
          "internalType": "uint256",
          "name": "maxDiscount",
          "type": "uint256"
        },
        {
          "internalType": "uint256",
          "name": "perSecondDiscountUpdateRate",
          "type": "uint256"
        },
        {
          "internalType": "uint256",
          "name": "latestDiscountUpdateTime",
          "type": "uint256"
        },
        {
          "internalType": "uint48",
          "name": "discountIncreaseDeadline",
          "type": "uint48"
        },
        {
          "internalType": "address",
          "name": "forgoneCollateralReceiver",
          "type": "address"
        },
        {
          "internalType": "address",
          "name": "auctionIncomeRecipient",
          "type": "address"
        }
      ],
      "stateMutability": "view",
      "type": "function"
    },
    {
      "inputs": [
        {
          "internalType": "uint256",
          "name": "id",
          "type": "uint256"
        },
        {
          "internalType": "uint256",
          "name": "wad",
          "type": "uint256"
        }
      ],
      "name": "buyCollateral",
      "outputs": [],
      "stateMutability": "nonpayable",
      "type": "function"
    },
    {
      "inputs": [],
      "name": "collateralFSM",
      "outputs": [
        {
          "internalType": "contract OracleLike",
          "name": "",
          "type": "address"
        }
      ],
      "stateMutability": "view",
      "type": "function"
    },
    {
      "inputs": [],
      "name": "collateralType",
      "outputs": [
        {
          "internalType": "bytes32",
          "name": "",
          "type": "bytes32"
        }
      ],
      "stateMutability": "view",
      "type": "function"
    },
    {
      "inputs": [
        {
          "internalType": "uint256",
          "name": "id",
          "type": "uint256"
        }
      ],
      "name": "forgoneCollateralReceiver",
      "outputs": [
        {
          "internalType": "address",
          "name": "",
          "type": "address"
        }
      ],
      "stateMutability": "view",
      "type": "function"
    },
    {
      "inputs": [
        {
          "internalType": "uint256",
          "name": "id",
          "type": "uint256"
        },
        {
          "internalType": "uint256",
          "name": "wad",
          "type": "uint256"
        }
      ],
      "name": "getAdjustedBid",
      "outputs": [
        {
          "internalType": "bool",
          "name": "",
          "type": "bool"
        },
        {
          "internalType": "uint256",
          "name": "",
          "type": "uint256"
        }
      ],
      "stateMutability": "view",
      "type": "function"
    },
    {
      "inputs": [
        {
          "internalType": "uint256",
          "name": "id",
          "type": "uint256"
        },
        {
          "internalType": "uint256",
          "name": "wad",
          "type": "uint256"
        }
      ],
      "name": "getApproximateCollateralBought",
      "outputs": [
        {
          "internalType": "uint256",
          "name": "",
          "type": "uint256"
        },
        {
          "internalType": "uint256",
          "name": "",
          "type": "uint256"
        }
      ],
      "stateMutability": "view",
      "type": "function"
    },
    {
      "inputs": [
        {
          "internalType": "uint256",
          "name": "id",
          "type": "uint256"
        },
        {
          "internalType": "uint256",
          "name": "wad",
          "type": "uint256"
        }
      ],
      "name": "getCollateralBought",
      "outputs": [
        {
          "internalType": "uint256",
          "name": "",
          "type": "uint256"
        },
        {
          "internalType": "uint256",
          "name": "",
          "type": "uint256"
        }
      ],
      "stateMutability": "nonpayable",
      "type": "function"
    },
    {
      "inputs": [
        {
          "internalType": "uint256",
          "name": "systemCoinRedemptionPrice",
          "type": "uint256"
        }
      ],
      "name": "getCollateralFSMAndFinalSystemCoinPrices",
      "outputs": [
        {
          "internalType": "uint256",
          "name": "",
          "type": "uint256"
        },
        {
          "internalType": "uint256",
          "name": "",
          "type": "uint256"
        }
      ],
      "stateMutability": "view",
      "type": "function"
    },
    {
      "inputs": [],
      "name": "getCollateralMedianPrice",
      "outputs": [
        {
          "internalType": "uint256",
          "name": "priceFeed",
          "type": "uint256"
        }
      ],
      "stateMutability": "view",
      "type": "function"
    },
    {
      "inputs": [
        {
          "internalType": "uint256",
          "name": "collateralFsmPriceFeedValue",
          "type": "uint256"
        },
        {
          "internalType": "uint256",
          "name": "collateralMedianPriceFeedValue",
          "type": "uint256"
        },
        {
          "internalType": "uint256",
          "name": "systemCoinPriceFeedValue",
          "type": "uint256"
        },
        {
          "internalType": "uint256",
          "name": "customDiscount",
          "type": "uint256"
        }
      ],
      "name": "getDiscountedCollateralPrice",
      "outputs": [
        {
          "internalType": "uint256",
          "name": "",
          "type": "uint256"
        }
      ],
      "stateMutability": "view",
      "type": "function"
    },
    {
      "inputs": [
        {
          "internalType": "uint256",
          "name": "collateralFsmPriceFeedValue",
          "type": "uint256"
        },
        {
          "internalType": "uint256",
          "name": "collateralMedianPriceFeedValue",
          "type": "uint256"
        }
      ],
      "name": "getFinalBaseCollateralPrice",
      "outputs": [
        {
          "internalType": "uint256",
          "name": "",
          "type": "uint256"
        }
      ],
      "stateMutability": "view",
      "type": "function"
    },
    {
      "inputs": [
        {
          "internalType": "uint256",
          "name": "id",
          "type": "uint256"
        }
      ],
      "name": "getNextCurrentDiscount",
      "outputs": [
        {
          "internalType": "uint256",
          "name": "",
          "type": "uint256"
        }
      ],
      "stateMutability": "view",
      "type": "function"
    },
    {
      "inputs": [
        {
          "internalType": "uint256",
          "name": "redemptionPrice",
          "type": "uint256"
        }
      ],
      "name": "getSystemCoinCeilingDeviatedPrice",
      "outputs": [
        {
          "internalType": "uint256",
          "name": "ceilingPrice",
          "type": "uint256"
        }
      ],
      "stateMutability": "view",
      "type": "function"
    },
    {
      "inputs": [
        {
          "internalType": "uint256",
          "name": "redemptionPrice",
          "type": "uint256"
        }
      ],
      "name": "getSystemCoinFloorDeviatedPrice",
      "outputs": [
        {
          "internalType": "uint256",
          "name": "floorPrice",
          "type": "uint256"
        }
      ],
      "stateMutability": "view",
      "type": "function"
    },
    {
      "inputs": [],
      "name": "getSystemCoinMarketPrice",
      "outputs": [
        {
          "internalType": "uint256",
          "name": "priceFeed",
          "type": "uint256"
        }
      ],
      "stateMutability": "view",
      "type": "function"
    },
    {
      "inputs": [],
      "name": "lastReadRedemptionPrice",
      "outputs": [
        {
          "internalType": "uint256",
          "name": "",
          "type": "uint256"
        }
      ],
      "stateMutability": "view",
      "type": "function"
    },
    {
      "inputs": [],
      "name": "liquidationEngine",
      "outputs": [
        {
          "internalType": "contract LiquidationEngineLike",
          "name": "",
          "type": "address"
        }
      ],
      "stateMutability": "view",
      "type": "function"
    },
    {
      "inputs": [],
      "name": "lowerCollateralMedianDeviation",
      "outputs": [
        {
          "internalType": "uint256",
          "name": "",
          "type": "uint256"
        }
      ],
      "stateMutability": "view",
      "type": "function"
    },
    {
      "inputs": [],
      "name": "lowerSystemCoinMedianDeviation",
      "outputs": [
        {
          "internalType": "uint256",
          "name": "",
          "type": "uint256"
        }
      ],
      "stateMutability": "view",
      "type": "function"
    },
    {
      "inputs": [],
      "name": "maxDiscount",
      "outputs": [
        {
          "internalType": "uint256",
          "name": "",
          "type": "uint256"
        }
      ],
      "stateMutability": "view",
      "type": "function"
    },
    {
      "inputs": [],
      "name": "maxDiscountUpdateRateTimeline",
      "outputs": [
        {
          "internalType": "uint256",
          "name": "",
          "type": "uint256"
        }
      ],
      "stateMutability": "view",
      "type": "function"
    },
    {
      "inputs": [],
      "name": "minDiscount",
      "outputs": [
        {
          "internalType": "uint256",
          "name": "",
          "type": "uint256"
        }
      ],
      "stateMutability": "view",
      "type": "function"
    },
    {
      "inputs": [],
      "name": "minSystemCoinMedianDeviation",
      "outputs": [
        {
          "internalType": "uint256",
          "name": "",
          "type": "uint256"
        }
      ],
      "stateMutability": "view",
      "type": "function"
    },
    {
      "inputs": [],
      "name": "minimumBid",
      "outputs": [
        {
          "internalType": "uint256",
          "name": "",
          "type": "uint256"
        }
      ],
      "stateMutability": "view",
      "type": "function"
    },
    {
      "inputs": [
        {
          "internalType": "bytes32",
          "name": "parameter",
          "type": "bytes32"
        },
        {
          "internalType": "address",
          "name": "data",
          "type": "address"
        }
      ],
      "name": "modifyParameters",
      "outputs": [],
      "stateMutability": "nonpayable",
      "type": "function"
    },
    {
      "inputs": [
        {
          "internalType": "bytes32",
          "name": "parameter",
          "type": "bytes32"
        },
        {
          "internalType": "uint256",
          "name": "data",
          "type": "uint256"
        }
      ],
      "name": "modifyParameters",
      "outputs": [],
      "stateMutability": "nonpayable",
      "type": "function"
    },
    {
      "inputs": [],
      "name": "oracleRelayer",
      "outputs": [
        {
          "internalType": "contract OracleRelayerLike",
          "name": "",
          "type": "address"
        }
      ],
      "stateMutability": "view",
      "type": "function"
    },
    {
      "inputs": [],
      "name": "perSecondDiscountUpdateRate",
      "outputs": [
        {
          "internalType": "uint256",
          "name": "",
          "type": "uint256"
        }
      ],
      "stateMutability": "view",
      "type": "function"
    },
    {
      "inputs": [
        {
          "internalType": "uint256",
          "name": "id",
          "type": "uint256"
        }
      ],
      "name": "raisedAmount",
      "outputs": [
        {
          "internalType": "uint256",
          "name": "",
          "type": "uint256"
        }
      ],
      "stateMutability": "view",
      "type": "function"
    },
    {
      "inputs": [
        {
          "internalType": "uint256",
          "name": "id",
          "type": "uint256"
        }
      ],
      "name": "remainingAmountToSell",
      "outputs": [
        {
          "internalType": "uint256",
          "name": "",
          "type": "uint256"
        }
      ],
      "stateMutability": "view",
      "type": "function"
    },
    {
      "inputs": [
        {
          "internalType": "address",
          "name": "account",
          "type": "address"
        }
      ],
      "name": "removeAuthorization",
      "outputs": [],
      "stateMutability": "nonpayable",
      "type": "function"
    },
    {
      "inputs": [],
      "name": "safeEngine",
      "outputs": [
        {
          "internalType": "contract SAFEEngineLike",
          "name": "",
          "type": "address"
        }
      ],
      "stateMutability": "view",
      "type": "function"
    },
    {
      "inputs": [
        {
          "internalType": "uint256",
          "name": "id",
          "type": "uint256"
        }
      ],
      "name": "settleAuction",
      "outputs": [],
      "stateMutability": "nonpayable",
      "type": "function"
    },
    {
      "inputs": [
        {
          "internalType": "address",
          "name": "forgoneCollateralReceiver",
          "type": "address"
        },
        {
          "internalType": "address",
          "name": "auctionIncomeRecipient",
          "type": "address"
        },
        {
          "internalType": "uint256",
          "name": "amountToRaise",
          "type": "uint256"
        },
        {
          "internalType": "uint256",
          "name": "amountToSell",
          "type": "uint256"
        },
        {
          "internalType": "uint256",
          "name": "initialBid",
          "type": "uint256"
        }
      ],
      "name": "startAuction",
      "outputs": [
        {
          "internalType": "uint256",
          "name": "id",
          "type": "uint256"
        }
      ],
      "stateMutability": "nonpayable",
      "type": "function"
    },
    {
      "inputs": [],
      "name": "systemCoinOracle",
      "outputs": [
        {
          "internalType": "contract OracleLike",
          "name": "",
          "type": "address"
        }
      ],
      "stateMutability": "view",
      "type": "function"
    },
    {
      "inputs": [
        {
          "internalType": "uint256",
          "name": "id",
          "type": "uint256"
        }
      ],
      "name": "terminateAuctionPrematurely",
      "outputs": [],
      "stateMutability": "nonpayable",
      "type": "function"
    },
    {
      "inputs": [],
      "name": "totalAuctionLength",
      "outputs": [
        {
          "internalType": "uint48",
          "name": "",
          "type": "uint48"
        }
      ],
      "stateMutability": "view",
      "type": "function"
    },
    {
      "inputs": [],
      "name": "upperCollateralMedianDeviation",
      "outputs": [
        {
          "internalType": "uint256",
          "name": "",
          "type": "uint256"
        }
      ],
      "stateMutability": "view",
      "type": "function"
    },
    {
      "inputs": [],
      "name": "upperSystemCoinMedianDeviation",
      "outputs": [
        {
          "internalType": "uint256",
          "name": "",
          "type": "uint256"
        }
      ],
      "stateMutability": "view",
      "type": "function"
    }
  ],
  "bytecode": {
    "object": "0x6080604052674563918244f400006004556005805465ffffffffffff191665ffffffffffff1790556000600655670d2f13f7789f0000600881905560098190556b033b2e3c9fd0803ce8000000600a55610e10600b55670c7d713b49da0000600c55600d55670de0b6b3a7640000600e819055600f55670ddd2935029d800060105534801561008d57600080fd5b50604051613937380380613937833981810160405260608110156100b057600080fd5b508051602080830151604093840151600280546001600160a01b038087166001600160a01b0319928316179092556014805492851692909116919091179055600381905533600081815280855286902060019055855190815294519394919390927f599a298163e1678bb1c676052a8930bf0b8a1261ed6e01b8a2391e55f7000102928290030190a15050506137ec8061014b6000396000f3fe608060405234801561001057600080fd5b50600436106103155760003560e01c80635e3a02cb116101a7578063b64c1d55116100ee578063e934323b11610097578063fe36543911610071578063fe365439146107df578063fe4f5890146107e7578063ff8dad751461080a57610315565b8063e934323b146107b2578063f16e0fc1146107ba578063f32abfac146107d757610315565b8063d3a86386116100c8578063d3a863861461079a578063e818ac21146107a2578063e824600f146107aa57610315565b8063b64c1d5514610752578063b8b89e1b1461076f578063ca8481491461077757610315565b80638d68836c116101505780639b056afb1161012a5780639b056afb14610725578063acb4cd261461072d578063b261c39a1461073557610315565b80638d68836c146106b2578063933f7608146106d557806394f3f81d146106f257610315565b806373c0a3671161018157806373c0a36714610660578063763536271461059557806383ba1afc1461068357610315565b80635e3a02cb146106025780636614f0101461061f57806367aea3131461065857610315565b80633d6f49111161026b57806346585f61116102145780634faf61ab116101ee5780634faf61ab146105cf57806354ece2d3146105d7578063551cb3b1146105fa57610315565b806346585f611461055757806348d9be16146105955780634a71b469146105b257610315565b806344f5b1101161024557806344f5b1101461052a578063455018e11461053257806345edd29b1461053a57610315565b80633d6f49111461046c5780634423c5f11461047457806344bf3c72146104f957610315565b806325ebc274116102cd578063355a4753116102a7578063355a4753146103f557806335b28153146103fd578063394e954d1461043057610315565b806325ebc2741461037f5780632e993611146103ce57806334f36bb8146103ed57610315565b80631266fb94116102fe5780631266fb941461033c5780631fcf38101461034457806324ba58841461034c57610315565b806303a613031461031a5780630b73771f14610334575b600080fd5b610322610827565b60408051918252519081900360200190f35b6103226109da565b6103226109e0565b610322610a04565b6103226004803603602081101561036257600080fd5b503573ffffffffffffffffffffffffffffffffffffffff16610a0a565b610322600480360360a081101561039557600080fd5b5073ffffffffffffffffffffffffffffffffffffffff813581169160208101359091169060408101359060608101359060800135610a1c565b6103eb600480360360208110156103e457600080fd5b5035610edc565b005b610322610edf565b610322610ee5565b6103eb6004803603602081101561041357600080fd5b503573ffffffffffffffffffffffffffffffffffffffff16610f09565b6104536004803603604081101561044657600080fd5b5080359060200135610fb6565b6040805192835260208301919091528051918290030190f35b6103226110cf565b6104916004803603602081101561048a57600080fd5b50356111de565b60408051998a5260208a0198909852888801969096526060880194909452608087019290925260a086015265ffffffffffff1660c085015273ffffffffffffffffffffffffffffffffffffffff90811660e08501521661010083015251908190036101200190f35b61050161124f565b6040805173ffffffffffffffffffffffffffffffffffffffff9092168252519081900360200190f35b61032261126b565b610322611271565b6105016004803603602081101561055057600080fd5b5035611277565b61057a6004803603604081101561056d57600080fd5b50803590602001356112af565b60408051921515835260208301919091528051918290030190f35b610322600480360360208110156105ab57600080fd5b50356113dc565b610322600480360360208110156105c857600080fd5b50356113e2565b61050161143b565b6103eb600480360360408110156105ed57600080fd5b5080359060200135611457565b610322611ccd565b6103226004803603602081101561061857600080fd5b5035611cd3565b6103eb6004803603604081101561063557600080fd5b508035906020013573ffffffffffffffffffffffffffffffffffffffff16611ce9565b610501611ffd565b610668612019565b6040805165ffffffffffff9092168252519081900360200190f35b6103226004803603608081101561069957600080fd5b5080359060208101359060408101359060600135612027565b610453600480360360408110156106c857600080fd5b508035906020013561204e565b6103eb600480360360208110156106eb57600080fd5b50356120dd565b6103eb6004803603602081101561070857600080fd5b503573ffffffffffffffffffffffffffffffffffffffff16612397565b610322612443565b610322612449565b6103226004803603602081101561074b57600080fd5b503561244f565b6104536004803603602081101561076857600080fd5b50356125f8565b610322612755565b6103226004803603604081101561078d57600080fd5b508035906020013561275b565b6103226127c3565b6105016127c9565b6103226127e5565b6103226127eb565b610322600480360360208110156107d057600080fd5b50356127f1565b610501612803565b61032261281f565b6103eb600480360360408110156107fd57600080fd5b5080359060200135612825565b6103226004803603602081101561082057600080fd5b5035612d16565b600080601260009054906101000a900473ffffffffffffffffffffffffffffffffffffffff1673ffffffffffffffffffffffffffffffffffffffff166320531bc96040518163ffffffff1660e01b815260040160206040518083038186803b15801561089257600080fd5b505afa9250505080156108b757506040513d60208110156108b257600080fd5b505160015b6108f1573d8080156108e5576040519150601f19603f3d011682016040523d82523d6000602084013e6108ea565b606091505b50506108f4565b90505b73ffffffffffffffffffffffffffffffffffffffff81166109195760009150506109d7565b8073ffffffffffffffffffffffffffffffffffffffff16634fd0ada86040518163ffffffff1660e01b8152600401604080518083038186803b15801561095e57600080fd5b505afa92505050801561098a57506040513d604081101561097e57600080fd5b50805160209091015160015b6109c9573d8080156109b8576040519150601f19603f3d011682016040523d82523d6000602084013e6109bd565b606091505b506000925050506109d7565b80156109d3578193505b5050505b90565b600f5481565b7f434f4c4c41544552414c0000000000000000000000000000000000000000000081565b600c5481565b60006020819052908152604090205481565b33600090815260208190526040812054600114610a6a5760405162461bcd60e51b815260040180806020018281038252603f8152602001806132d6603f913960400191505060405180910390fd5b7fffffffffffffffffffffffffffffffffffffffffffffffffffffffffffffffff60065410610aca5760405162461bcd60e51b81526004018080602001828103825260318152602001806133a16031913960400191505060405180910390fd5b60008311610b095760405162461bcd60e51b815260040180806020018281038252603f8152602001806135e8603f913960400191505060405180910390fd5b60008411610b485760405162461bcd60e51b81526004018080602001828103825260398152602001806133156039913960400191505060405180910390fd5b6b033b2e3c9fd0803ce8000000841015610b935760405162461bcd60e51b81526004018080602001828103825260368152602001806135406036913960400191505060405180910390fd5b506006805460010190819055600b54600090610bb0904290612d43565b905060085460016000848152602001908152602001600020600201819055506009546001600084815260200190815260200160002060030181905550600a546001600084815260200190815260200160002060040181905550806001600084815260200190815260200160002060060160006101000a81548165ffffffffffff021916908365ffffffffffff160217905550426001600084815260200190815260200160002060050181905550836001600084815260200190815260200160002060000181905550866001600084815260200190815260200160002060060160066101000a81548173ffffffffffffffffffffffffffffffffffffffff021916908373ffffffffffffffffffffffffffffffffffffffff160217905550856001600084815260200190815260200160002060070160006101000a81548173ffffffffffffffffffffffffffffffffffffffff021916908373ffffffffffffffffffffffffffffffffffffffff160217905550846001600084815260200190815260200160002060010181905550600260009054906101000a900473ffffffffffffffffffffffffffffffffffffffff1673ffffffffffffffffffffffffffffffffffffffff16634e5111a66003543330886040518563ffffffff1660e01b8152600401808581526020018473ffffffffffffffffffffffffffffffffffffffff1673ffffffffffffffffffffffffffffffffffffffff1681526020018373ffffffffffffffffffffffffffffffffffffffff1673ffffffffffffffffffffffffffffffffffffffff168152602001828152602001945050505050600060405180830381600087803b158015610e2457600080fd5b505af1158015610e38573d6000803e3d6000fd5b5050600654600854600954600a546040805189815260208101959095528481018b9052606085018a9052608085019390935260a084019190915260c083015265ffffffffffff851660e08301525173ffffffffffffffffffffffffffffffffffffffff808b1694508b16925088917feeef9cc8b762ca3069593e765824d4986b3666db6287f9d6418789eda72cfe3791908190036101000190a45095945050505050565b50565b60075481565b7f494e4352454153494e475f444953434f554e540000000000000000000000000081565b33600090815260208190526040902054600114610f575760405162461bcd60e51b815260040180806020018281038252603f8152602001806132d6603f913960400191505060405180910390fd5b73ffffffffffffffffffffffffffffffffffffffff81166000818152602081815260409182902060019055815192835290517f599a298163e1678bb1c676052a8930bf0b8a1261ed6e01b8a2391e55f70001029281900390910190a150565b600080600080610fc686866112af565b9150915081610fdc576000935091506110c89050565b601160009054906101000a900473ffffffffffffffffffffffffffffffffffffffff1673ffffffffffffffffffffffffffffffffffffffff1663c5b748c06040518163ffffffff1660e01b8152600401602060405180830381600087803b15801561104657600080fd5b505af115801561105a573d6000803e3d6000fd5b505050506040513d602081101561107057600080fd5b505160078190556000908190611085906125f8565b9150915081600014156110a25750600094509092506110c8915050565b6110bf88836110af610827565b84876110ba8e612d90565b612dbe565b95509193505050505b9250929050565b60135460009073ffffffffffffffffffffffffffffffffffffffff166110f7575060006109d7565b601354604080517f4fd0ada8000000000000000000000000000000000000000000000000000000008152815173ffffffffffffffffffffffffffffffffffffffff90931692634fd0ada892600480840193919291829003018186803b15801561115f57600080fd5b505afa92505050801561118b57506040513d604081101561117f57600080fd5b50805160209091015160015b6111c9573d8080156111b9576040519150601f19603f3d011682016040523d82523d6000602084013e6111be565b606091505b5060009150506109d7565b80156111d95781633b9aca000292505b505090565b6001602081905260009182526040909120805491810154600282015460038301546004840154600585015460068601546007909601549495939492939192909165ffffffffffff81169173ffffffffffffffffffffffffffffffffffffffff66010000000000009092048216911689565b60145473ffffffffffffffffffffffffffffffffffffffff1681565b600d5481565b600e5481565b6000818152600160205260409020600601546601000000000000900473ffffffffffffffffffffffffffffffffffffffff165b919050565b60008281526001602081905260408220805491015482916112ec916112d691159015612e16565b6112e7856000146004548710612e16565b612e16565b156112fc575060009050816110c8565b600084815260016020819052604090912001548381611327826b033b2e3c9fd0803ce8000000612e1a565b111561134a576113476b033b2e3c9fd0803ce8000000835b046001612e70565b90505b81611361826b033b2e3c9fd0803ce8000000612e1a565b1161139d576000868152600160208190526040909120015461139890611393836b033b2e3c9fd0803ce8000000612e1a565b612eb2565b6113a0565b60005b91506113bd600083116b033b2e3c9fd0803ce80000008410612ef4565b156113cf576000935091506110c89050565b6001969095509350505050565b50600090565b60008061140583611400670de0b6b3a7640000600202601054612eb2565b612ef8565b905061142283611400670de0b6b3a7640000600202600f54612eb2565b9150808210156114325782611434565b815b9392505050565b60115473ffffffffffffffffffffffffffffffffffffffff1681565b6000828152600160208190526040909120805491015461147b911515901515612ef4565b6114b65760405162461bcd60e51b815260040180806020018281038252603b81526020018061373e603b913960400191505060405180910390fd5b6114c860008211600454831015612ef4565b6115035760405162461bcd60e51b81526004018080602001828103825260348152602001806134ca6034913960400191505060405180910390fd5b60008281526001602081905260409091200154819061152e826b033b2e3c9fd0803ce8000000612e1a565b1115611561576000838152600160208190526040909120015461155e906b033b2e3c9fd0803ce80000009061133f565b90505b601160009054906101000a900473ffffffffffffffffffffffffffffffffffffffff1673ffffffffffffffffffffffffffffffffffffffff1663c5b748c06040518163ffffffff1660e01b8152600401602060405180830381600087803b1580156115cb57600080fd5b505af11580156115df573d6000803e3d6000fd5b505050506040513d60208110156115f557600080fd5b50516007819055600090819061160a906125f8565b915091506000821161164d5760405162461bcd60e51b81526004018080602001828103825260458152602001806131126045913960600191505060405180910390fd5b6000611667868461165c610827565b85886110ba8c612d90565b9050600081116116a85760405162461bcd60e51b815260040180806020018281038252603b81526020018061348f603b913960400191505060405180910390fd5b6000868152600160205260409020546116c19082612eb2565b60008781526001602081905260408220928355919091015461170c906116f3886b033b2e3c9fd0803ce8000000612e1a565b60008a8152600160205260409020549111159015612e16565b611742576000878152600160208190526040909120015461173d90611393886b033b2e3c9fd0803ce8000000612e1a565b611756565b600087815260016020819052604090912001545b60008881526001602081905260409091200154909150611782866b033b2e3c9fd0803ce8000000612e1a565b116117b957600087815260016020819052604090912001546117b490611393876b033b2e3c9fd0803ce8000000612e1a565b6117bc565b60005b6000888152600160208190526040909120018190556117ec908015906b033b2e3c9fd0803ce80000001115612e16565b6118275760405162461bcd60e51b815260040180806020018281038252603e815260200180613779603e913960400191505060405180910390fd5b60025460008881526001602052604090206007015473ffffffffffffffffffffffffffffffffffffffff9182169163efabcadc91339116611874896b033b2e3c9fd0803ce8000000612e1a565b6040518463ffffffff1660e01b8152600401808473ffffffffffffffffffffffffffffffffffffffff1673ffffffffffffffffffffffffffffffffffffffff1681526020018373ffffffffffffffffffffffffffffffffffffffff1673ffffffffffffffffffffffffffffffffffffffff1681526020018281526020019350505050600060405180830381600087803b15801561191057600080fd5b505af1158015611924573d6000803e3d6000fd5b5050600254600354604080517f4e5111a60000000000000000000000000000000000000000000000000000000081526004810192909252306024830152336044830152606482018790525173ffffffffffffffffffffffffffffffffffffffff9092169350634e5111a6925060848082019260009290919082900301818387803b1580156119b157600080fd5b505af11580156119c5573d6000803e3d6000fd5b5050604080518881526020810186905281518b94507fa4a1133e32fac37643a1fe1db4631daadb462c8662ae16004e67f0b8bb60838393509081900390910190a260008781526001602081905260408220908101549054611a2891159015612e16565b90508015611ac057601454604080517f332bef1100000000000000000000000000000000000000000000000000000000815260048101859052905173ffffffffffffffffffffffffffffffffffffffff9092169163332bef119160248082019260009290919082900301818387803b158015611aa357600080fd5b505af1158015611ab7573d6000803e3d6000fd5b50505050611b43565b60145473ffffffffffffffffffffffffffffffffffffffff1663332bef11611af4886b033b2e3c9fd0803ce8000000612e1a565b6040518263ffffffff1660e01b815260040180828152602001915050600060405180830381600087803b158015611b2a57600080fd5b505af1158015611b3e573d6000803e3d6000fd5b505050505b8015611cc35760025460035460008a8152600160205260408082206006810154905482517f4e5111a6000000000000000000000000000000000000000000000000000000008152600481019590955230602486015273ffffffffffffffffffffffffffffffffffffffff66010000000000009092048216604486015260648501529051931692634e5111a692608480820193929182900301818387803b158015611bec57600080fd5b505af1158015611c00573d6000803e3d6000fd5b5050506000898152600160208181526040808420848155928301849055600283018490556003830184905560048301849055600583018490556006830180547fffffffffffff0000000000000000000000000000000000000000000000000000169055600790920180547fffffffffffffffffffffffff0000000000000000000000000000000000000000169055815192835290518b93507fef063949eb6ef5abef19139d9c75a558424ffa759302cfe445f8d2d327376fe49281900390910190a25b5050505050505050565b60065481565b6000908152600160208190526040909120015490565b33600090815260208190526040902054600114611d375760405162461bcd60e51b815260040180806020018281038252603f8152602001806132d6603f913960400191505060405180910390fd5b817f6f7261636c6552656c61796572000000000000000000000000000000000000001415611da457601180547fffffffffffffffffffffffff00000000000000000000000000000000000000001673ffffffffffffffffffffffffffffffffffffffff8316179055611fa9565b817f636f6c6c61746572616c46534d000000000000000000000000000000000000001415611e9857601280547fffffffffffffffffffffffff00000000000000000000000000000000000000001673ffffffffffffffffffffffffffffffffffffffff8381169190911791829055604080517f20531bc9000000000000000000000000000000000000000000000000000000008152905192909116916320531bc991600480820192602092909190829003018186803b158015611e6657600080fd5b505afa158015611e7a573d6000803e3d6000fd5b505050506040513d6020811015611e9057600080fd5b50611fa99050565b817f73797374656d436f696e4f7261636c65000000000000000000000000000000001415611f0557601380547fffffffffffffffffffffffff00000000000000000000000000000000000000001673ffffffffffffffffffffffffffffffffffffffff8316179055611fa9565b817f6c69717569646174696f6e456e67696e650000000000000000000000000000001415611f7257601480547fffffffffffffffffffffffff00000000000000000000000000000000000000001673ffffffffffffffffffffffffffffffffffffffff8316179055611fa9565b60405162461bcd60e51b81526004018080602001828103825260428152602001806134fe6042913960600191505060405180910390fd5b6040805183815273ffffffffffffffffffffffffffffffffffffffff8316602082015281517fd91f38cf03346b5dc15fb60f9076f866295231ad3c3841a1051f8443f25170d1929181900390910190a15050565b60025473ffffffffffffffffffffffffffffffffffffffff1681565b60055465ffffffffffff1681565b600061204561203f612039878761275b565b85612f1c565b83612ef8565b95945050505050565b60008060075460001415612067575060009050816110c8565b60008061207486866112af565b915091508161208a576000935091506110c89050565b6000806120986007546125f8565b9150915081600014156120b55750600094509092506110c8915050565b6110bf88836120c2610827565b60008c81526001602052604090206002015485908890612dbe565b3360009081526020819052604090205460011461212b5760405162461bcd60e51b815260040180806020018281038252603f8152602001806132d6603f913960400191505060405180910390fd5b6000818152600160208190526040909120805491015461214f911515901515612ef4565b61218a5760405162461bcd60e51b815260040180806020018281038252603b81526020018061373e603b913960400191505060405180910390fd5b60145460008281526001602081905260408083209091015481517f332bef110000000000000000000000000000000000000000000000000000000081526004810191909152905173ffffffffffffffffffffffffffffffffffffffff9093169263332bef119260248084019391929182900301818387803b15801561220e57600080fd5b505af1158015612222573d6000803e3d6000fd5b50506002546003546000858152600160205260408082205481517f4e5111a6000000000000000000000000000000000000000000000000000000008152600481019490945230602485015233604485015260648401525173ffffffffffffffffffffffffffffffffffffffff9093169450634e5111a69350608480830193919282900301818387803b1580156122b757600080fd5b505af11580156122cb573d6000803e3d6000fd5b5050506000828152600160208181526040808420848155928301849055600283018490556003830184905560048301849055600583018490556006830180547fffffffffffff0000000000000000000000000000000000000000000000000000169055600790920180547fffffffffffffffffffffffff000000000000000000000000000000000000000016905581513381529081019290925280518493507fc34559e2a8e75127b58d4776333fd647f36849c478fb02e4e069d7501ac004159281900390910190a250565b336000908152602081905260409020546001146123e55760405162461bcd60e51b815260040180806020018281038252603f8152602001806132d6603f913960400191505060405180910390fd5b73ffffffffffffffffffffffffffffffffffffffff811660008181526020818152604080832092909255815192835290517f8834a87e641e9716be4f34527af5d23e11624f1ddeefede6ad75a9acfc31b9039281900390910190a150565b60085481565b60105481565b6000818152600160205260408120600601546601000000000000900473ffffffffffffffffffffffffffffffffffffffff1661249857506b033b2e3c9fd0803ce80000006112aa565b60008281526001602052604090206002810154600682015460039092015490916124d69165ffffffffffff9182164290921691909110908311612ef4565b1561256457600083815260016020526040902060048101546005909101546125309161251991612507904290612eb2565b6b033b2e3c9fd0803ce8000000612f73565b600085815260016020526040902060020154613031565b600084815260016020526040902060030154909150811161255f57506000828152600160205260409020600301545b6125f2565b6000838152600160205260408120600281015460039091015461258a9115901515612ef4565b60008581526001602052604081206006810154600382015460029092015493945091926125c99265ffffffffffff908116429091161015911415612ef4565b90506125d58282612e16565b156125ef5760008581526001602052604090206003015492505b50505b92915050565b6000806000831161263a5760405162461bcd60e51b815260040180806020018281038252604a8152602001806133d2604a913960600191505060405180910390fd5b601254604080517f4fd0ada80000000000000000000000000000000000000000000000000000000081528151600093849373ffffffffffffffffffffffffffffffffffffffff90911692634fd0ada89260048083019392829003018186803b1580156126a557600080fd5b505afa1580156126b9573d6000803e3d6000fd5b505050506040513d60408110156126cf57600080fd5b5080516020909101519092509050806126f15750600092508291506127509050565b8460006126fc6110cf565b9050801561274757600061270f83612d16565b9050600061271c846113e2565b905083831015612737576127308383613097565b9350612744565b61274183826130ae565b93505b50505b50919350909150505b915091565b60095481565b60008061276a84600c54612ef8565b9050600061278985611400670de0b6b3a7640000600202600d54612eb2565b905060008415612799578461279b565b855b9050858110156127b9576127af8184613097565b93505050506125f2565b6127af81836130ae565b60045481565b60135473ffffffffffffffffffffffffffffffffffffffff1681565b60035481565b600b5481565b60009081526001602052604090205490565b60125473ffffffffffffffffffffffffffffffffffffffff1681565b600a5481565b336000908152602081905260409020546001146128735760405162461bcd60e51b815260040180806020018281038252603f8152602001806132d6603f913960400191505060405180910390fd5b817f6d696e446973636f756e7400000000000000000000000000000000000000000014156128f9576128b4600954821015670de0b6b3a76400008310612ef4565b6128ef5760405162461bcd60e51b815260040180806020018281038252603d8152602001806136af603d913960400191505060405180910390fd5b6008819055612cd7565b817f6d6178446973636f756e74000000000000000000000000000000000000000000141561298b5761294661293d600854831115670de0b6b3a76400008410612ef4565b60008311612ef4565b6129815760405162461bcd60e51b815260040180806020018281038252603d81526020018061341c603d913960400191505060405180910390fd5b6009819055612cd7565b817f7065725365636f6e64446973636f756e745570646174655261746500000000001415612a08576b033b2e3c9fd0803ce80000008111156129fe5760405162461bcd60e51b81526004018080602001828103825260458152602001806131e56045913960600191505060405180910390fd5b600a819055612cd7565b817f6d6178446973636f756e745570646174655261746554696d656c696e650000001415612a9357612a4e60008211612a414284612e70565b65ffffffffffff11612ef4565b612a895760405162461bcd60e51b81526004018080602001828103825260418152602001806132606041913960600191505060405180910390fd5b600b819055612cd7565b817f6c6f776572436f6c6c61746572616c4d656469616e446576696174696f6e00001415612b0c57670de0b6b3a7640000811115612b025760405162461bcd60e51b81526004018080602001828103825260528152602001806131936052913960600191505060405180910390fd5b600c819055612cd7565b817f7570706572436f6c6c61746572616c4d656469616e446576696174696f6e00001415612b8557670de0b6b3a7640000811115612b7b5760405162461bcd60e51b81526004018080602001828103825260528152602001806136ec6052913960600191505060405180910390fd5b600d819055612cd7565b817f6c6f77657253797374656d436f696e4d656469616e446576696174696f6e00001415612bfe57670de0b6b3a7640000811115612bf45760405162461bcd60e51b815260040180806020018281038252605381526020018061334e6053913960600191505060405180910390fd5b600e819055612cd7565b817f757070657253797374656d436f696e4d656469616e446576696174696f6e00001415612c7757670de0b6b3a7640000811115612c6d5760405162461bcd60e51b81526004018080602001828103825260538152602001806136276053913960600191505060405180910390fd5b600f819055612cd7565b817f6d696e53797374656d436f696e4d656469616e446576696174696f6e000000001415612ca9576010819055612cd7565b817f6d696e696d756d426964000000000000000000000000000000000000000000001415611f725760048190555b604080518381526020810183905281517fac7c5c1afaef770ec56ac6268cd3f2fbb1035858ead2601d6553157c33036c3a929181900390910190a15050565b600080612d2583601054612ef8565b9050612d3383600e54612ef8565b9150808211156114325782611434565b80820165ffffffffffff80841690821610156125f25760405162461bcd60e51b815260040180806020018281038252603c815260200180613157603c913960400191505060405180910390fd5b6000818152600160205260408120612da78361244f565b600282018190554260059092019190915592915050565b600080612dcd87878786612027565b90506000612ddb85836130be565b60008a8152600160205260409020549091508111612df95780612e09565b6000898152600160205260409020545b9998505050505050505050565b1790565b6000811580612e3557505080820282828281612e3257fe5b04145b6125f25760405162461bcd60e51b81526004018080602001828103825260358152602001806135b36035913960400191505060405180910390fd5b808201828110156125f25760405162461bcd60e51b815260040180806020018281038252603d815260200180613576603d913960400191505060405180910390fd5b808203828111156125f25760405162461bcd60e51b81526004018080602001828103825260368152602001806134596036913960400191505060405180910390fd5b1690565b6000670de0b6b3a7640000612f0d8484612e1a565b81612f1457fe5b049392505050565b6000808211612f5c5760405162461bcd60e51b815260040180806020018281038252603581526020018061367a6035913960400191505060405180910390fd5b81612f0d846b033b2e3c9fd0803ce8000000612e1a565b600083801561301357600184168015612f8e57859250612f92565b8392505b50600283046002850494505b841561300d578586028687820414612fb557600080fd5b81810181811015612fc557600080fd5b8590049650506001851615613002578583028387820414158715151615612feb57600080fd5b81810181811015612ffb57600080fd5b8590049350505b600285049450612f9e565b50613029565b8380156130235760009250613027565b8392505b505b509392505050565b81810281158061304957508282828161304657fe5b04145b6130845760405162461bcd60e51b815260040180806020018281038252603681526020018061322a6036913960400191505060405180910390fd5b6b033b2e3c9fd0803ce800000081612f14565b6000818310156130a75781611434565b5090919050565b6000818311156130a75781611434565b60008082116130fe5760405162461bcd60e51b81526004018080602001828103825260358152602001806132a16035913960400191505060405180910390fd5b81612f0d84670de0b6b3a7640000612e1a56fe496e6372656173696e67446973636f756e74436f6c6c61746572616c41756374696f6e486f7573652f636f6c6c61746572616c2d66736d2d696e76616c69642d76616c7565496e6372656173696e67446973636f756e74436f6c6c61746572616c41756374696f6e486f7573652f6164642d75696e7434382d6f766572666c6f77496e6372656173696e67446973636f756e74436f6c6c61746572616c41756374696f6e486f7573652f696e76616c69642d6c6f7765722d636f6c6c61746572616c2d6d656469616e2d646576696174696f6e496e6372656173696e67446973636f756e74436f6c6c61746572616c41756374696f6e486f7573652f696e76616c69642d646973636f756e742d7570646174652d72617465496e6372656173696e67446973636f756e74436f6c6c61746572616c41756374696f6e486f7573652f726d756c2d6f766572666c6f77496e6372656173696e67446973636f756e74436f6c6c61746572616c41756374696f6e486f7573652f696e76616c69642d7570646174652d726174652d74696d65496e6372656173696e67446973636f756e74436f6c6c61746572616c41756374696f6e486f7573652f776469762d62792d7a65726f496e6372656173696e67446973636f756e74436f6c6c61746572616c41756374696f6e486f7573652f6163636f756e742d6e6f742d617574686f72697a6564496e6372656173696e67446973636f756e74436f6c6c61746572616c41756374696f6e486f7573652f6e6f7468696e672d746f2d7261697365496e6372656173696e67446973636f756e74436f6c6c61746572616c41756374696f6e486f7573652f696e76616c69642d6c6f7765722d73797374656d2d636f696e2d6d656469616e2d646576696174696f6e496e6372656173696e67446973636f756e74436f6c6c61746572616c41756374696f6e486f7573652f6f766572666c6f77496e6372656173696e67446973636f756e74436f6c6c61746572616c41756374696f6e486f7573652f696e76616c69642d726564656d7074696f6e2d70726963652d70726f7669646564496e6372656173696e67446973636f756e74436f6c6c61746572616c41756374696f6e486f7573652f696e76616c69642d6d61782d646973636f756e74496e6372656173696e67446973636f756e74436f6c6c61746572616c41756374696f6e486f7573652f7375622d756e646572666c6f77496e6372656173696e67446973636f756e74436f6c6c61746572616c41756374696f6e486f7573652f6e756c6c2d626f756768742d616d6f756e74496e6372656173696e67446973636f756e74436f6c6c61746572616c41756374696f6e486f7573652f696e76616c69642d626964496e6372656173696e67446973636f756e74436f6c6c61746572616c41756374696f6e486f7573652f6d6f646966792d756e7265636f676e697a65642d706172616d496e6372656173696e67446973636f756e74436f6c6c61746572616c41756374696f6e486f7573652f64757374792d61756374696f6e496e6372656173696e67446973636f756e74436f6c6c61746572616c41756374696f6e486f7573652f6164642d75696e743235362d6f766572666c6f77496e6372656173696e67446973636f756e74436f6c6c61746572616c41756374696f6e486f7573652f6d756c2d6f766572666c6f77496e6372656173696e67446973636f756e74436f6c6c61746572616c41756374696f6e486f7573652f6e6f2d636f6c6c61746572616c2d666f722d73616c65496e6372656173696e67446973636f756e74436f6c6c61746572616c41756374696f6e486f7573652f696e76616c69642d75707065722d73797374656d2d636f696e2d6d656469616e2d646576696174696f6e496e6372656173696e67446973636f756e74436f6c6c61746572616c41756374696f6e486f7573652f726469762d62792d7a65726f496e6372656173696e67446973636f756e74436f6c6c61746572616c41756374696f6e486f7573652f696e76616c69642d6d696e2d646973636f756e74496e6372656173696e67446973636f756e74436f6c6c61746572616c41756374696f6e486f7573652f696e76616c69642d75707065722d636f6c6c61746572616c2d6d656469616e2d646576696174696f6e496e6372656173696e67446973636f756e74436f6c6c61746572616c41756374696f6e486f7573652f696e6578697374656e742d61756374696f6e496e6372656173696e67446973636f756e74436f6c6c61746572616c41756374696f6e486f7573652f696e76616c69642d6c6566742d746f2d7261697365a2646970667358221220bb90751cd6bd440fdb82c0f06c29a2a5cfee4260ae9c0168f7d4fbaddf1a86ff64736f6c63430006070033",
    "linkReferences": {}
  },
  "methodIdentifiers": {
    "AUCTION_HOUSE_TYPE()": "1266fb94",
    "AUCTION_TYPE()": "355a4753",
    "addAuthorization(address)": "35b28153",
    "amountToRaise(uint256)": "5e3a02cb",
    "auctionsStarted()": "551cb3b1",
    "authorizedAccounts(address)": "24ba5884",
    "bidAmount(uint256)": "48d9be16",
    "bids(uint256)": "4423c5f1",
    "buyCollateral(uint256,uint256)": "54ece2d3",
    "collateralFSM()": "f32abfac",
    "collateralType()": "e824600f",
    "forgoneCollateralReceiver(uint256)": "45edd29b",
    "getAdjustedBid(uint256,uint256)": "46585f61",
    "getApproximateCollateralBought(uint256,uint256)": "8d68836c",
    "getCollateralBought(uint256,uint256)": "394e954d",
    "getCollateralFSMAndFinalSystemCoinPrices(uint256)": "b64c1d55",
    "getCollateralMedianPrice()": "03a61303",
    "getDiscountedCollateralPrice(uint256,uint256,uint256,uint256)": "83ba1afc",
    "getFinalBaseCollateralPrice(uint256,uint256)": "ca848149",
    "getNextCurrentDiscount(uint256)": "b261c39a",
    "getSystemCoinCeilingDeviatedPrice(uint256)": "4a71b469",
    "getSystemCoinFloorDeviatedPrice(uint256)": "ff8dad75",
    "getSystemCoinMarketPrice()": "3d6f4911",
    "lastReadRedemptionPrice()": "34f36bb8",
    "liquidationEngine()": "44bf3c72",
    "lowerCollateralMedianDeviation()": "1fcf3810",
    "lowerSystemCoinMedianDeviation()": "455018e1",
    "maxDiscount()": "b8b89e1b",
    "maxDiscountUpdateRateTimeline()": "e934323b",
    "minDiscount()": "9b056afb",
    "minSystemCoinMedianDeviation()": "acb4cd26",
    "minimumBid()": "d3a86386",
    "modifyParameters(bytes32,address)": "6614f010",
    "modifyParameters(bytes32,uint256)": "fe4f5890",
    "oracleRelayer()": "4faf61ab",
    "perSecondDiscountUpdateRate()": "fe365439",
    "raisedAmount(uint256)": "76353627",
    "remainingAmountToSell(uint256)": "f16e0fc1",
    "removeAuthorization(address)": "94f3f81d",
    "safeEngine()": "67aea313",
    "settleAuction(uint256)": "2e993611",
    "startAuction(address,address,uint256,uint256,uint256)": "25ebc274",
    "systemCoinOracle()": "e818ac21",
    "terminateAuctionPrematurely(uint256)": "933f7608",
    "totalAuctionLength()": "73c0a367",
    "upperCollateralMedianDeviation()": "44f5b110",
    "upperSystemCoinMedianDeviation()": "0b73771f"
  },
  "id": 71
}